:100000000C9435000C945D000C945D000C945D0024
:100010000C945D000C945D000C945D000C945D00EC
:100020000C945D000C945D000C945D000C945D00DC
:100030000C945D000C945D000C945D000C945D00CC
:100040000C9474000C945D000C949B020C94CD02F3
:100050000C945D000C945D000C945D000C945D00AC
:100060000C945D000C945D00FD0211241FBECFEFC7
:10007000D8E0DEBFCDBF11E0A0E0B1E0EEE9F7E0EF
:1000800002C005900D92A632B107D9F721E0A6E291
:10009000B1E001C01D92AC3CB207E1F710E0CAE646
:1000A000D0E004C02297FE010E94C903C836D107E0
:1000B000C9F70E9495030C94CD030C94000026E030
:1000C00040E855E260E070E08FE291E00E94390282
:1000D00060E071E08FE291E00C94820368E873E1E4
:1000E00080E090E00C94E1001F920F920FB60F9207
:1000F00011242F933F938F939F93AF93BF9380913E
:10010000270190912801A0912901B0912A013091F5
:10011000260123E0230F2D3720F40196A11DB11DE8
:1001200005C026E8230F0296A11DB11D20932601CC
:100130008093270190932801A0932901B0932A016D
:1001400080912B0190912C01A0912D01B0912E0155
:100150000196A11DB11D80932B0190932C01A093BA
:100160002D01B0932E01BF91AF919F918F913F913F
:100170002F910F900FBE0F901F9018953FB7F894D6
:1001800080912B0190912C01A0912D01B0912E0115
:1001900026B5A89B05C02F3F19F00196A11DB11DE2
:1001A0003FBF6627782F892F9A2F620F711D811DFF
:1001B000911D42E0660F771F881F991F4A95D1F75E
:1001C00008958F929F92AF92BF92CF92DF92EF925B
:1001D000FF926B017C010E94BE004B015C01C114C7
:1001E000D104E104F104F1F00E94A4030E94BE00D6
:1001F000681979098A099B09683E73408105910550
:1002000070F321E0C21AD108E108F10888EE880EE7
:1002100083E0981EA11CB11CC114D104E104F104B7
:1002200029F7DDCFFF90EF90DF90CF90BF90AF9098
:100230009F908F900895789484B5826084BD84B532
:10024000816084BD85B5826085BD85B5816085BDD1
:10025000EEE6F0E0808181608083E1E8F0E01082EA
:10026000808182608083808181608083E0E8F0E02B
:10027000808181608083E1EBF0E080818460808315
:10028000E0EBF0E0808181608083EAE7F0E080814C
:1002900084608083808182608083808181608083AC
:1002A0008081806880831092C1000895FC01818D57
:1002B000228D90E0805C9F4F821B91098F7399275C
:1002C0000895FC01918D828D981731F0828DE80F91
:1002D000F11D858D90E008958FEF9FEF0895FC014B
:1002E000918D828D981761F0828DDF01A80FB11D6D
:1002F0005D968C91928D9F5F9F73928F90E0089591
:100300008FEF9FEF089583EF92E0892B49F080E013
:1003100090E0892B29F00E94F30281110C940000D7
:100320000895FC01848DDF01A80FB11DA35ABF4FB2
:100330002C91848D90E001968F739927848FA689E4
:10034000B7892C93A089B1898C9180648C93938D0B
:10035000848D981306C00288F389E02D80818F7DFB
:1003600080830895CF93DF93EC01888D8823C9F0B3
:10037000EA89FB89808185FD05C0A889B9898C91AE
:1003800086FD0FC00FB607FCF5CF808185FFF2CF49
:10039000A889B9898C9185FFEDCFCE010E9491018A
:1003A000E7CFDF91CF910895CF92DF92FF920F9325
:1003B0001F93CF93DF931F92CDB7DEB76C0181E01F
:1003C000D60158968C9358975B969C915B975C9658
:1003D0008C915C97981307C05096ED91FC915197C2
:1003E000808185FD2EC0F601038D10E00F5F1F4F49
:1003F0000F731127F02EF601848DF81211C00FB67D
:1004000007FCF9CFD6015096ED91FC915197808170
:1004100085FFF1CFC60169830E9491016981EBCF0D
:10042000838DE80FF11DE35AFF4F6083D6015B9681
:100430000C935B975296ED91FC915397808180626B
:100440000CC0D6015696ED91FC915797608350965B
:10045000ED91FC91519780818064808381E090E0F0
:100460000F90DF91CF911F910F91FF90DF90CF9070
:100470000895BF92CF92DF92EF92FF92CF93DF93D6
:10048000EC016A017B01B22EE889F98982E0808360
:10049000411581EE580761057105A1F060E079E032
:1004A0008DE390E0A70196010E94A5032150310938
:1004B000410951095695479537952795211580E1B2
:1004C000380798F0E889F989108260E874E88EE1CD
:1004D00090E0A70196010E94A5032150310941092E
:1004E00051095695479537952795EC85FD853083BD
:1004F000EE85FF852083188EEC89FD89B082EA891C
:10050000FB89808180618083EA89FB8980818860A2
:100510008083EA89FB89808180688083EA89FB89FE
:1005200080818F7D8083DF91CF91FF90EF90DF906E
:10053000CF90BF9008951F920F920FB60F92112483
:100540002F938F939F93EF93FF93E0913F01F0914F
:1005500040018081E0914501F091460182FD12C089
:100560009081809148018F5F8F732091490182179C
:1005700051F0E0914801F0E0E15DFE4F958F8093EE
:10058000480101C08081FF91EF919F918F912F9140
:100590000F900FBE0F901F9018951F920F920FB6DD
:1005A0000F9211242F933F934F935F936F937F93F9
:1005B0008F939F93AF93BF93EF93FF938FE291E05D
:1005C0000E949101FF91EF91BF91AF919F918F9107
:1005D0007F916F915F914F913F912F910F900FBE3F
:1005E0000F901F9018958FE291E00E94560121E034
:1005F000892B09F420E0822F089510923201109285
:10060000310188EE93E0A0E0B0E080933301909355
:100610003401A0933501B093360188E091E09093C6
:10062000300180932F0185EC90E090933C01809302
:100630003B0184EC90E090933E0180933D0180EC7F
:1006400090E09093400180933F0181EC90E0909383
:1006500042018093410182EC90E0909344018093A9
:10066000430186EC90E090934601809345011092FF
:1006700048011092490110924A0110924B010895CD
:10068000CF92DF92EF92FF920F931F93CF93DF935E
:100690007C016A01EB0100E010E00C151D0571F012
:1006A0006991D701ED91FC910190F081E02DC70196
:1006B0000995892B19F00F5F1F4FEFCFC801DF910C
:1006C000CF911F910F91FF90EF90DF90CF90089501
:1006D0006115710581F0DB010D900020E9F7AD0196
:1006E00041505109461B570BDC01ED91FC910280F2
:1006F000F381E02D099480E090E0089564E171E0D9
:100700000C9468030F931F93CF93DF93EC010E9427
:1007100068038C01CE010E947E03800F911FDF9140
:10072000CF911F910F91089508950E941B010E947F
:1007300094030E945F00C3E8D1E00E946E002097FE
:10074000E1F30E948301F9CF0895A1E21A2EAA1BBA
:10075000BB1BFD010DC0AA1FBB1FEE1FFF1FA21771
:10076000B307E407F50720F0A21BB30BE40BF50B6E
:10077000661F771F881F991F1A9469F760957095F7
:10078000809590959B01AC01BD01CF010895EE0FBE
:0E079000FF1F0590F491E02D0994F894FFCF1F
:10079E00656E640000000000D401400356016F0135
:1007AE006101B2010D0A006E616E00696E66006F26
:0607BE007666002E00002B
:00000001FF
