:1000000072C000009EC000009CC000009AC00000AA
:1000100098C0000096C0000094C0000092C000008C
:1000200090C000008EC000008CC000008AC000009C
:1000300088C0000086C0000084C0000082C00000AC
:1000400080C000007EC000007CC000007AC00000BC
:1000500078C0000076C0000074C0000085C00000B9
:1000600070C00000F6C200002AC300006AC0000091
:1000700068C0000066C0000064C0000062C00000EC
:1000800060C000005EC000005CC000005AC00000FC
:1000900058C0000056C0000054C0000052C000000C
:1000A00050C000004EC000004CC000004AC000001C
:1000B00048C0000046C0000044C0000042C000002C
:1000C00040C000003EC000003CC000003AC000003C
:1000D00038C0000036C0000034C0000032C000004C
:1000E00030C00000910311241FBECFEFD1E2DEBF6C
:1000F000CDBF00E00CBF12E0A0E0B2E0E2EBF8E020
:1001000000E00BBF02C007900D92A632B107D9F7ED
:1001100022E0A6E2B2E001C01D92AC3CB207E1F7DA
:1001200010E0C6EED0E000E005C022970109FE0114
:100130000BBFB9D3C43ED10780E00807B1F786D31F
:10014000B6C35ECF26E040E855E260E070E08FE2A3
:1001500092E01FD260E072E08FE292E066C368E84E
:1001600073E180E090E06DC01F920F920FB60F9286
:1001700011242F933F938F939F93AF93BF938091BD
:10018000270290912802A0912902B0912A02309171
:10019000260223E0230F2D3720F40196A11DB11D67
:1001A00005C026E8230F0296A11DB11D209326024B
:1001B0008093270290932802A0932902B0932A02E9
:1001C00080912B0290912C02A0912D02B0912E02D1
:1001D0000196A11DB11D80932B0290932C02A09338
:1001E0002D02B0932E02BF91AF919F918F913F91BD
:1001F0002F910F900FBE0F901F9018953FB7F89456
:1002000080912B0290912C02A0912D02B0912E0290
:1002100026B5A89B05C02F3F19F00196A11DB11D61
:100220003FBF6627782F892F9A2F620F711D811D7E
:10023000911D42E0660F771F881F991F4A95D1F7DD
:1002400008958F929F92AF92BF92CF92DF92EF92DA
:10025000FF926B017C01D2DF4B015C01C114D10420
:10026000E104F104E1F0FCD2C9DF681979098A09D7
:100270009B09683E73408105910580F321E0C21A15
:10028000D108E108F10888EE880E83E0981EA11CD1
:10029000B11CC114D104E104F10431F7DFCFFF90A8
:1002A000EF90DF90CF90BF90AF909F908F90089588
:1002B000789484B5826084BD84B5816084BD85B541
:1002C000826085BD85B5816085BDEEE6F0E0808108
:1002D00081608083E1E8F0E0108280818260808329
:1002E000808181608083E0E8F0E0808181608083AC
:1002F000E1EBF0E0808184608083E0EBF0E08081DE
:1003000081608083E1E9F0E0808182608083808188
:1003100081608083E0E9F0E0808181608083E1EAB0
:10032000F0E0808182608083808181608083E0EA68
:10033000F0E0808181608083E1E2F1E08081826091
:100340008083808181608083E0E2F1E08081816050
:100350008083EAE7F0E0808184608083808182602E
:100360008083808181608083808180688083109217
:10037000C1000895FC01818D228D90E0805C9F4F2B
:10038000821B91098F7399270895FC01918D828DAD
:10039000981731F0828DE80FF11D858D90E008955A
:1003A0008FEF9FEF0895FC01918D828D981761F07A
:1003B000828DDF01A80FB11D5D968C91928D9F5F9C
:1003C0009F73928F90E008958FEF9FEF089588E8D4
:1003D00093E0892B39F080E090E0892B19F098D1D7
:1003E000811125C080E090E0892B41F080E090E011
:1003F000892B21F00E94000081111CC080E090E058
:10040000892B41F080E090E0892B21F00E940000D0
:10041000811113C080E090E0892BA1F080E090E092
:10042000892B81F00E94000081110AC008950E946A
:100430000000D8CF0E940000E1CF0E940000EACF68
:100440000C9400000895FC01848DDF01A80FB11DFC
:10045000A35ABF4F2C91848D90E001968F739927FA
:10046000848FA689B7892C93A089B1898C918064E7
:100470008C93938D848D981306C00288F389E02DA8
:1004800080818F7D80830895CF93DF93EC01888DE9
:100490008823C1F0EA89FB89808185FD05C0A88990
:1004A000B9898C9186FD0EC00FB607FCF5CF80810F
:1004B00085FFF2CFA889B9898C9185FFEDCFCE0158
:1004C000C2DFE8CFDF91CF910895CF92DF92FF9204
:1004D0000F931F93CF93DF931F92CDB7DEB76C01BD
:1004E00081E0D60158968C9358975B969C915B97C8
:1004F0005C968C915C97981307C05096ED91FC9197
:100500005197808185FD2DC0F601038D10E00F5FAE
:100510001F4F0F731127F02EF601848DF81210C0B3
:100520000FB607FCF9CFD6015096ED91FC9151978B
:10053000808185FFF1CFC601698385DF6981ECCFBA
:10054000838DE80FF11DE35AFF4F6083D6015B9660
:100550000C935B975296ED91FC915397808180624A
:100560000CC0D6015696ED91FC915797608350963A
:10057000ED91FC91519780818064808381E090E0CF
:100580000F90DF91CF911F910F91FF90DF90CF904F
:100590000895BF92CF92DF92EF92FF92CF93DF93B5
:1005A000EC016A017B01B22EE889F98982E080833F
:1005B000411581EE58076105710599F060E079E019
:1005C0008DE390E0A70196014CD1215031094109FA
:1005D00051095695479537952795211580E138079C
:1005E00090F0E889F989108260E874E88EE190E083
:1005F000A701960136D1215031094109510956957B
:10060000479537952795EC85FD853083EE85FF85E9
:100610002083188EEC89FD89B082EA89FB8980816C
:1006200080618083EA89FB89808188608083EA8990
:10063000FB89808180688083EA89FB8980818F7D46
:100640008083DF91CF91FF90EF90DF90CF90BF90AC
:1006500008951F920F920FB60F9211240BB60F92AE
:100660002F938F939F93EF93FF93E0913F02F0912D
:1006700040028081E0914502F091460282FD12C065
:100680009081809148028F5F8F7320914902821779
:1006900051F0E0914802F0E0E15DFD4F958F8093CD
:1006A000480201C08081FF91EF919F918F912F911E
:1006B0000F900BBE0F900FBE0F901F9018951F92BA
:1006C0000F920FB60F9211240BB60F922F933F93F8
:1006D0004F935F936F937F938F939F93AF93BF934A
:1006E000EF93FF938FE292E0AEDEFF91EF91BF9127
:1006F000AF919F918F917F916F915F914F913F91BA
:100700002F910F900BBE0F900FBE0F901F9018955A
:100710008FE292E02FDE21E0892B09F420E0822F86
:100720000895109232021092310288EE93E0A0E018
:10073000B0E08093330290933402A0933502B093DB
:10074000360288E092E09093300280932F0285EC8D
:1007500090E090933C0280933B0284EC90E0909375
:100760003E0280933D0280EC90E0909340028093A3
:100770003F0281EC90E0909342028093410282EC30
:1007800090E0909344028093430286EC90E0909333
:10079000460280934502109248021092490210923C
:1007A0004A0210924B020895CF92DF92EF92FF928D
:1007B0000F931F93CF93DF937C016A01EB0100E05D
:1007C00010E00C151D0571F06991D701ED91FC91B8
:1007D0000190F081E02DC7011995892B19F00F5F69
:1007E0001F4FEFCFC801DF91CF911F910F91FF9065
:1007F000EF90DF90CF9008956115710581F0DB01D6
:100800000D900020E9F7AD0141505109461B570BEF
:10081000DC01ED91FC910280F381E02D199480E0E0
:1008200090E0089564E172E0E7CF0F931F93CF93B8
:10083000DF93EC01E1DF8C01CE01F4DF800F911F2B
:10084000DF91CF911F910F910895089531DDFDDF64
:1008500079DCC7EED1E083DC2097E9F3B8DDFBCF8C
:100860000895A1E21A2EAA1BBB1BFD010DC0AA1FF1
:10087000BB1FEE1FFF1FA217B307E407F50720F009
:10088000A21BB30BE40BF50B661F771F881F991F84
:100890001A9469F760957095809590959B01AC01CD
:1008A000BD01CF0108950790F691E02D1994F894B9
:0208B000FFCF78
:1008B200656E6400000000006502D403BA01D30132
:1008C200C50144020D0A006E616E00696E66006F1A
:0608D2007666002E000016
:00000001FF
