:020000040800F2
:1000000000000120A9140008690300086B03000820
:100010006D0300086F030008710300080000000072
:100020000000000000000000000000007303000852
:10003000750300080000000077030008790300083A
:10004000F1140008F1140008F1140008F11400087C
:10005000F1140008F1140008F1140008F11400086C
:10006000F1140008F1140008F1140008F11400085C
:10007000F1140008F1140008F1140008F11400084C
:10008000F1140008F1140008F1140008F11400083C
:10009000F1140008F1140008F1140008F11400082C
:1000A000F1140008F1140008F1140008F11400081C
:1000B000F1140008F1140008F1140008F11400080C
:1000C000F1140008F1140008F1140008F1140008FC
:1000D000F114000881030008F1140008F11400086D
:1000E000F1140008F1140008F1140008F1140008DC
:1000F000F1140008F1140008F1140008F1140008CC
:10010000F1140008F1140008F1140008F1140008BB
:10011000F1140008F1140008F1140008F1140008AB
:10012000F1140008F1140008F1140008F11400089B
:1001300000000000000000000000000000000000BF
:1001400000000000000000000000000000000000AF
:10015000000000000000000000000000000000009F
:10016000000000000000000000000000000000008F
:10017000000000000000000000000000000000007F
:10018000000000000000000000000000000000006F
:10019000000000000000000000000000000000005F
:1001A000000000000000000000000000000000004F
:1001B000000000000000000000000000000000003F
:1001C000000000000000000000000000000000002F
:1001D000000000000000000000000000000000001F
:0401E0005FF8E0F1F3
:1001E40010B5054C237833B9044B13B10448AFF36D
:1001F40000800123237010BD0C00002000000000CB
:100204004C15000808B5034B1BB103490348AFF371
:10021400008008BD00000000100000204C150008FC
:1002240030B587B000240294039404940594124BCF
:100234009A6942F008029A619A6902F008020092EF
:10024400009A9A6942F004029A619B6903F00403DC
:100254000193019B094D22460121284600F0ACFD83
:1002640001230293039304940223059302A92846CD
:1002740000F082FC07B030BD00100240000C0140C9
:1002840072B6FEE708B50A480A4B03604FF4E1333F
:10029400436000238360C36003610C224261836175
:1002A400C36100F06DFF00B908BDFFF7E9FF00BFAF
:1002B400280000200038014000B591B02822002118
:1002C40006A801F039F900230193029303930493E0
:1002D4000593012206924FF4803307930A92022277
:1002E4000D920E934FF4E0130F9306A800F02AF931
:1002F40080B90F23019302210291002303934FF449
:1003040080620492059301A800F05AFB20B911B051
:100314005DF804FBFFF7B4FFFFF7B2FF00B587B049
:1003240000F0C2F8FFF7C8FFFFF77AFFFFF7AAFF54
:100334000DF1040C094C0FCCACE80F002368CCF889
:1003440000304FF47A73142201A9054800F047FFE6
:100354004FF47A7000F0CCF8F3E700BF641500089E
:1003640028000020FEE7FEE7FEE7FEE7FEE7704711
:100374007047704708B500F0A9F808BD08B50248F1
:1003840000F0F4FF08BD00BF2800002082B00E4B2F
:100394009A6942F001029A619A6902F0010200929C
:1003A400009ADA6942F08052DA61DB6903F0805323
:1003B4000193019B054A536823F0E06343F0007303
:1003C400536002B0704700BF0010024000000140BB
:1003D40030B587B000230293039304930593026816
:1003E4001B4B9A4201D007B030BD03F558439A69BC
:1003F40042F480429A619A6902F480420092009A1F
:100404009A6942F004029A619B6903F00403019320
:10041400019B4FF400730293022303930323059378
:100424000C4D02A9284600F0A7FB4FF48063029309
:1004340000240394049402A9284600F09DFB22465C
:100444002146252000F084FD252000F0B9FDCAE7EF
:1004540000380140000801407047000010B5044610
:100464000E4B18784FF47A73B3FBF0F30C4A106810
:10047400B0FBF3F000F0B2FD68B90F2C01D90120F4
:100484000AE0002221464FF0FF3000F061FD054BE9
:100494001C60002000E0012010BD00BF040000200B
:1004A400000000200800002008B5074A136843F044
:1004B40010031360032000F039FD0020FFF7CEFF86
:1004C400FFF764FF002008BD00200240034A1168C2
:1004D400034B1B780B441360704700BF6800002077
:1004E40004000020014B1868704700BF680000201A
:1004F40038B50446FFF7F6FF0546B4F1FF3F02D0D6
:10050400044B1B781C44FFF7EDFF401BA042FAD3B9
:1005140038BD00BF0400002082B0084B1B68084AA5
:10052400A2FB03235B0A00FB03F3019300BF019BBF
:100534005A1E0192002BF9D102B07047000000202E
:10054400D34D6210002800F0F18170B582B00446EA
:10055400036813F0010F2CD0994B5B6803F00C0374
:10056400042B1DD0964B5B6803F00C03082B12D0B0
:100574006368B3F5803F41D0002B55D103F180432C
:1005840003F504331A6822F480321A601A6822F4DC
:1005940080221A6037E08A4B5B6813F4803FE7D00F
:1005A400874B1B6813F4003F03D06368002B00F0F3
:1005B400BF81236813F0020F75D0814B5B6813F081
:1005C4000C0F5FD07E4B5B6803F00C03082B54D0F8
:1005D4002369002B00F08A807A4B01221A60FFF70E
:1005E40081FF0546764B1B6813F0020F75D1FFF7A8
:1005F40079FF401B0228F5D903209EE1704A136855
:1006040043F480331360636843B3FFF76BFF05461D
:100614006B4B1B6813F4003FCBD1FFF763FF401B08
:100624006428F5D9032088E1B3F5A02F09D0644BE1
:100634001A6822F480321A601A6822F480221A603E
:10064400E1E703F18043A3F53C331A6842F48022C6
:100654001A601A6842F480321A60D4E7FFF742FF46
:100664000546574B1B6813F4003FA2D0FFF73AFF2F
:10067400401B6428F5D903205FE1514B5B6813F4F8
:10068400803FA5D14E4B1B6813F0020F03D02369A2
:10069400012B40F04F814A4A136823F0F803616943
:1006A40043EAC1031360236813F0080F33D0A3692E
:1006B400002B5CD0434B0122C3F88024FFF712FFC8
:1006C40005463F4B5B6A13F0020F21D1FFF70AFF87
:1006D400401B0228F5D903202FE1394A136823F07F
:1006E400F803616943EAC1031360DCE7354B002278
:1006F4001A60FFF7F7FE0546314B1B6813F0020F33
:10070400D1D0FFF7EFFE401B0228F5D9032014E1F6
:100714000120FFF701FF236813F0040F00F0968017
:10072400274BDB6913F0805F34D1254BDA6942F043
:100734008052DA61DB6903F080530193019B012548
:10074400214B1B6813F4807F26D0E368012B3DD036
:10075400002B53D103F1804303F504331A6A22F0CA
:1007640001021A621A6A22F004021A6233E0154B7B
:100774000022C3F88024FFF7B5FE0546104B5B6AE0
:1007840013F0020FC7D0FFF7ADFE401B0228F5D9C6
:100794000320D2E00025D3E70B4A136843F48073A7
:1007A4001360FFF79FFE0646074B1B6813F4807F18
:1007B400CBD1FFF797FE801B6428F5D90320BCE05A
:1007C4000010024000004242007000405F4A136A79
:1007D40043F001031362E36833B3FFF783FE064675
:1007E4005A4B1B6A13F0020F2FD1FFF77BFE801BBD
:1007F40041F288339842F3D903209EE0052B09D0B7
:10080400524B1A6A22F001021A621A6A22F0040296
:100814001A62E0E74D4B1A6A42F004021A621A6A3D
:1008240042F001021A62D6E7FFF75CFE0646474B28
:100834001B6A13F0020F08D0FFF754FE801B41F22D
:1008440088339842F3D9032077E0E5B9E369002BB4
:1008540072D03E4A526802F00C02082A56D0022B8B
:1008640017D03B4B00221A66FFF73CFE0446374B79
:100874001B6813F0007F47D0FFF734FE001B0228EB
:10088400F5D9032059E0314AD36923F08053D36169
:10089400DCE72F4B00221A66FFF724FE05462B4B9C
:1008A4001B6813F0007F06D0FFF71CFE401B0228D4
:1008B400F5D9032041E0236AB3F5803F1AD02349D8
:1008C4004B6823F47413226A606A024313434B6037
:1008D4001F4B01221A66FFF705FE04461B4B1B68DB
:1008E40013F0007F0ED1FFF7FDFD001B0228F5D9A0
:1008F400032022E0154A536823F40033A1680B4314
:100904005360DCE7002018E0002016E0012B16D02D
:100914000E4B5B6803F48031226A914211D103F4D7
:100924007013626A93420ED1002006E001207047E2
:10093400012002E0012000E0002002B070BD01208F
:10094400FBE70120F9E70120F7E700BF00100240B0
:100954000000424286B0164B0FCB0DF1180C0CE987
:100964000F0040F20123ADF80430124B5B6803F032
:100974000C02082A02D0104806B07047C3F3834221
:10098400624412F8100C13F4803F0CD0094B5B68DE
:10099400C3F34043634413F8143C074A02FB00F0DA
:1009A400B0FBF3F0E8E7054B03FB00F0E4E700BF1E
:1009B400901500080010024000127A0000093D0062
:1009C400002800F0A08070B50D460446524B1B6809
:1009D40003F007038B420BD24F4A136823F007033B
:1009E4000B431360136803F007038B4240F08D80C0
:1009F400236813F0020F17D013F0040F04D0474AF2
:100A0400536843F4E0635360236813F0080F04D081
:100A1400424A536843F460535360404A536823F096
:100A2400F003A1680B435360236813F0010F31D026
:100A34006368012B20D0022B25D0384A126812F0AB
:100A4400020F64D035494A6822F0030213434B6015
:100A5400FFF748FD0646314B5B6803F00C03626800
:100A6400B3EB820F16D0FFF73DFD801B41F28833B4
:100A74009842F0D9032045E0284A126812F4003F56
:100A8400E0D101203EE0254A126812F0007FD9D15E
:100A9400012037E0204B1B6803F00703AB420AD95F
:100AA4001D4A136823F007032B431360136803F0F4
:100AB4000703AB422DD1236813F0040F06D0174A65
:100AC400536823F4E063E1680B435360236813F035
:100AD400080F07D0114A536823F46053216943EA8D
:100AE400C1035360FFF736FF0C4B5B68C3F303137A
:100AF4000B4AD35CD8400B4B18600B4B1868FFF7BC
:100B0400ADFC002070BD012070470120FAE70120F0
:100B1400F8E70120F6E700BF002002400010024081
:100B2400781500080000002008000020014B186818
:100B3400704700BF0000002008B5FFF7F7FF044B23
:100B44005B68C3F30223034AD35CD84008BD00BFEB
:100B5400001002408815000808B5FFF7E7FF044BB2
:100B64005B68C3F3C223034AD35CD84008BD00BF0B
:100B7400001002408815000870B582B00024A44615
:100B8400B0E0874DAA4210D007D9864DAA420CD0B6
:100B940005F58035AA4208D013E0A5F58015AA42D0
:100BA40003D005F57025AA4207D18A68002A62D0CD
:100BB400012A5BD04361082403E0A5F58015AA420D
:100BC400F3D0BEF1FF0F58D80646BEF1FF0F56D83A
:100BD4004FEA8C0233680F25954023EA050304FA93
:100BE40002F2134333604B6813F0805F78D06E4B8E
:100BF4009A6942F001029A619B6903F0010301932F
:100C0400019B4FEA9C02951C684B53F825600CF03D
:100C140003039D000F23AB4026EA0306644B98426E
:100C240033D003F58063984200F0988003F5806325
:100C3400984200F0958003F58063984200F092801A
:100C440003F58063984200F08F8003F58063984237
:100C540019D006231AE0CC68B3E7CC680434B0E7B3
:100C6400CC680834ADE7CC680C34AAE703610824E7
:100C7400A7E70024A5E70424A3E7061DA5E7ACF134
:100C840008029200A6E7052300E00023AB403343AB
:100C94000232464D45F822304B6813F4803F65D04C
:100CA400444A136843EA0E0313604B6813F4003F8D
:100CB40062D0404A536843EA0E0353604B6813F40E
:100CC400801F5FD03B4A936843EA0E0393604B68EE
:100CD40013F4001F5CD0374AD36843EA0E03D36091
:100CE4000CF1010C0A6832FA0CF357D0012303FA11
:100CF4000CF302EA030E33EA0202F1D14A68122A23
:100D04003FF63FAF122A3FF65CAF01A555F822F03B
:100D1400AF0B00085B0C0008650C0008770C00089A
:100D2400C70B0008C70B0008C70B0008C70B000857
:100D3400C70B0008C70B0008C70B0008C70B000847
:100D4400C70B0008C70B0008C70B0008C70B000837
:100D5400C70B00085F0C00086B0C0008012395E723
:100D6400022393E7032391E704238FE7114A1368CF
:100D740023EA0E03136098E70E4A536823EA0E032E
:100D840053609BE70B4A936823EA0E0393609EE744
:100D9400084AD36823EA0E03D360A1E702B070BD0A
:100DA4000000221000003110001002400000014039
:100DB40000080140000401400AB1016170470904C0
:100DC4000161704708B590F82130022B03D0042349
:100DD4008363012008BD0268136823F00E031360C7
:100DE4000268136823F00103136003684B4A9342BB
:100DF4004ED9783A934224D01432934230D01432EC
:100E040093422FD0143293422FD0143293422FD0D6
:100E1400143293422FD0143293422FD002F56272CF
:100E240093422ED0143293422DD0143293422CD0BC
:100E34001432934202D04FF4803203E04FF48052D4
:100E440000E00122364B5A60012380F82130002350
:100E540080F82030436B002B5ED098470020B9E720
:100E64001022EFE74FF48072ECE74FF48052E9E789
:100E74004FF48032E6E74FF48012E3E74FF08072DC
:100E8400E0E70122DEE71022DCE74FF48072D9E7C5
:100E9400244A934224D01432934225D014329342EC
:100EA40024D01432934224D01432934224D01432E6
:100EB400934224D01432934224D002F562729342B6
:100EC40023D01432934222D01432934221D01432CC
:100ED400934202D04FF4803203E04FF4805200E09A
:100EE4000122114B5A60AFE71022FAE74FF48072E7
:100EF400F7E74FF48052F4E74FF48032F1E74FF410
:100F04008012EEE74FF08072EBE70122E9E710224E
:100F1400E7E74FF48072E4E700205BE780000240DB
:100F2400000402400800024000000240074AD3685F
:100F340023F4E0631B041B0C000200F4E060034391
:100F440043F0BF6343F40033D360704700ED00E027
:100F540000B5194BDB68C3F30223C3F1070CBCF1E2
:100F6400040F28BF4FF0040C03F1040EBEF1060F6A
:100F740018D9033B4FF0FF3E0EFA0CFC21EA0C019A
:100F840099400EFA03F322EA0303194300280BDB0A
:100F94000901C9B200F1604000F5614080F8001316
:100FA4005DF804FB0023E5E700F00F000901C9B276
:100FB400024B1954F4E700BF00ED00E014ED00E02B
:100FC400002807DB00F01F02400901239340024A76
:100FD40042F82030704700BF00E100E00138B0F172
:100FE400807F0BD24FF0E0235861054AF02182F84C
:100FF40023100020986107221A617047012070476E
:1010040000ED00E00268D36823F49073D3600268B3
:10101400536923F001035361202380F83A30704769
:1010240090F83930DBB2212B01D00220704783685D
:10103400B3F5805F17D0036A5A1C02621A780368FA
:101044005A60C38C9BB2013B9BB2C3844BB9026808
:10105400D36823F08003D3600268D36843F040036D
:10106400D360002070470369002BE4D1036A1B8816
:101074000268C3F308035360036A02330362E0E7C0
:1010840010B504460268136923F44053C1680B4346
:10109400136183680269134342691A430168CB6888
:1010A40023F4B05323F00C031343CB600268536959
:1010B40023F4407381690B4353610268134B9A42D2
:1010C40020D0FFF739FD024602EB820202EB8202D6
:1010D40063689B00B2FBF3F20D48A0FB023149099F
:1010E400642303FB11231B013233A0FB03235B099D
:1010F40003F0F00202EB011203F00F032168134422
:101104008B6010BDFFF728FD0246DDE70038014083
:101114001F85EB512DE9F84305460F4616469946BF
:10112400DDF820802C68246837EA04030CBF4FF0F4
:10113400010C4FF0000CB4451FD1B8F1FF3FF1D0C2
:10114400B8F1000F05D0FFF7CDF9A0EB0900404539
:10115400E8D92A68D36823F4D073D3602A68536922
:1011640023F001035361202385F8393085F83A30A0
:10117400002385F83830032000E00020BDE8F88320
:1011840058B310B5044690F839300BB3242384F8CF
:1011940039302268D36823F40053D3602046FFF724
:1011A4006FFF2268136923F4904313612268536923
:1011B40023F02A0353612268D36843F40053D360B5
:1011C4000020E063202384F8393084F83A3010BDDD
:1011D40080F83830FFF7FCF8D8E7012070472DE994
:1011E400F04182B01E4690F83930DBB2202B54D146
:1011F40004460D469046002953D0002A53D090F857
:101204003830012B51D0012380F838300023C363D8
:10121400212380F83930FFF765F90746A4F82480C4
:10122400A4F82680A368B3F5805F05D04FF00008CA
:10123400002384F8383012E0236913B14FF000081A
:10124400F6E7A8460025F3E738F8023B2268C3F323
:1012540008035360E28C92B2013A92B2E284E38CC6
:101264009BB273B100963B46002280212046FFF7D3
:1012740051FFE0B9002DE7D015F8012B23685A601F
:10128400E8E700963B46002240212046FFF742FF54
:1012940078B9202384F8393000E0022002B0BDE898
:1012A400F0810120FAE70120F8E70220F6E70320A5
:1012B400F4E70320F2E7704708B50168CA6822F032
:1012C4004002CA60202280F83920FFF7F4FF002092
:1012D40008BD704708B590F83A30DBB2222B41D1F3
:1012E4008368B3F5805F14D0826AB3F5805F02D05F
:1012F400E3B90369D3B903685B681370836A013384
:101304008362C38D9BB2013B9BB2C385A3B1002012
:1013140008BD0269002AE7D1826A03685B68C3F3E7
:1013240008031380836A02338362EAE703685B6815
:1013340003F07F031370E1E70268D36823F020030E
:10134400D3600268D36823F48073D360026853695E
:1013540023F001035361202380F83A30FFF7B9FFEB
:101364000020D5E70220D3E77047000010B50446FB
:1013740002681368D168526913F00F0005D113F0A5
:10138400200F02D011F0200F13D128B112F0010266
:1013940013D111F4907F10D113F0800F02D011F00B
:1013A400800F6CD113F0400F02D011F0400F6AD1BE
:1013B40010BD2046FFF78EFFFAE713F0010F06D0A9
:1013C40011F4807F03D0E06B40F00100E06313F080
:1013D400040F04D01AB1E06B40F00200E06313F094
:1013E400020F04D01AB1E06B40F00400E06313F084
:1013F400080F07D011F0200F00D11AB1E26B42F0B0
:101404000802E263E26B002AD2D013F0200F02D06C
:1014140011F0200F21D123685B6903F04003E26BD4
:1014240012F0080F00D123B32046FFF7EBFD236829
:101434005A6912F0400F18D05A6922F040025A61DA
:10144400636B73B1124A5A63606BFFF7BBFC0028ED
:10145400AED0606B436B9847AAE72046FFF73AFF8C
:10146400D9E72046FFF780FFA2E72046FFF77CFF7D
:101474009EE72046FFF778FF0023E36398E72046C2
:10148400FFF7CEFD94E72046FFF716FF90E700BF75
:101494009914000808B5406A0023C385C384FFF784
:1014A40063FF08BD002103E00B4B5B58435004313C
:1014B4000A480B4B42189A42F6D30A4A02E0002328
:1014C40042F8043B084B9A42F9D3FEF7C5FF00F0FB
:1014D4000FF8FEF723FF7047AC150008000000204A
:1014E4000C0000200C0000206C000020FEE700002F
:1014F40070B500260C4D0D4C641BA410A64209D1F6
:1015040000F022F800260A4D0A4C641BA410A642DF
:1015140005D170BD55F8043B98470136EEE755F800
:10152400043B98470136F2E7A4150008A415000807
:10153400A4150008A815000803460244934200D1EC
:10154400704703F8011BF9E7F8B500BFF8BC08BC05
:101554009E467047F8B500BFF8BC08BC9E4670476D
:101564003D3D3D3D3D3D3132333435363D3D3D3DE0
:101574003D3D0A00000000000000000001020304D9
:101584000607080900000000010203040203040521
:10159400060708090A0B0C0D0E0F101000000000BE
:0415A4000902000830
:0415A800E501000851
:0C15AC000024F40001000000100000000A
:04000005080014A932
:00000001FF
